{
  "_format": "hh-sol-artifact-1",
  "contractName": "BoltsToken",
  "sourceName": "contracts/BoltsToken.sol",
  "abi": [
    {
      "inputs": [
        {
          "internalType": "address",
          "name": "_robos",
          "type": "address"
        }
      ],
      "stateMutability": "nonpayable",
      "type": "constructor"
    },
    {
      "anonymous": false,
      "inputs": [
        {
          "indexed": true,
          "internalType": "address",
          "name": "owner",
          "type": "address"
        },
        {
          "indexed": true,
          "internalType": "address",
          "name": "spender",
          "type": "address"
        },
        {
          "indexed": false,
          "internalType": "uint256",
          "name": "amount",
          "type": "uint256"
        }
      ],
      "name": "Approval",
      "type": "event"
    },
    {
      "anonymous": false,
      "inputs": [
        {
          "indexed": true,
          "internalType": "address",
          "name": "user",
          "type": "address"
        },
        {
          "indexed": false,
          "internalType": "uint256",
          "name": "reward",
          "type": "uint256"
        }
      ],
      "name": "RewardPaid",
      "type": "event"
    },
    {
      "anonymous": false,
      "inputs": [
        {
          "indexed": true,
          "internalType": "address",
          "name": "from",
          "type": "address"
        },
        {
          "indexed": true,
          "internalType": "address",
          "name": "to",
          "type": "address"
        },
        {
          "indexed": false,
          "internalType": "uint256",
          "name": "amount",
          "type": "uint256"
        }
      ],
      "name": "Transfer",
      "type": "event"
    },
    {
      "inputs": [],
      "name": "BASE_RATE",
      "outputs": [
        {
          "internalType": "uint256",
          "name": "",
          "type": "uint256"
        }
      ],
      "stateMutability": "view",
      "type": "function"
    },
    {
      "inputs": [],
      "name": "DOMAIN_SEPARATOR",
      "outputs": [
        {
          "internalType": "bytes32",
          "name": "",
          "type": "bytes32"
        }
      ],
      "stateMutability": "view",
      "type": "function"
    },
    {
      "inputs": [],
      "name": "END",
      "outputs": [
        {
          "internalType": "uint256",
          "name": "",
          "type": "uint256"
        }
      ],
      "stateMutability": "view",
      "type": "function"
    },
    {
      "inputs": [],
      "name": "INITAL_ISSUANCE",
      "outputs": [
        {
          "internalType": "uint256",
          "name": "",
          "type": "uint256"
        }
      ],
      "stateMutability": "view",
      "type": "function"
    },
    {
      "inputs": [],
      "name": "JR_BASE_RATE",
      "outputs": [
        {
          "internalType": "uint256",
          "name": "",
          "type": "uint256"
        }
      ],
      "stateMutability": "view",
      "type": "function"
    },
    {
      "inputs": [],
      "name": "LEGENDARY_RATE",
      "outputs": [
        {
          "internalType": "uint256",
          "name": "",
          "type": "uint256"
        }
      ],
      "stateMutability": "view",
      "type": "function"
    },
    {
      "inputs": [],
      "name": "PERMIT_TYPEHASH",
      "outputs": [
        {
          "internalType": "bytes32",
          "name": "",
          "type": "bytes32"
        }
      ],
      "stateMutability": "view",
      "type": "function"
    },
    {
      "inputs": [
        {
          "internalType": "address",
          "name": "",
          "type": "address"
        },
        {
          "internalType": "address",
          "name": "",
          "type": "address"
        }
      ],
      "name": "allowance",
      "outputs": [
        {
          "internalType": "uint256",
          "name": "",
          "type": "uint256"
        }
      ],
      "stateMutability": "view",
      "type": "function"
    },
    {
      "inputs": [
        {
          "internalType": "address",
          "name": "spender",
          "type": "address"
        },
        {
          "internalType": "uint256",
          "name": "amount",
          "type": "uint256"
        }
      ],
      "name": "approve",
      "outputs": [
        {
          "internalType": "bool",
          "name": "",
          "type": "bool"
        }
      ],
      "stateMutability": "nonpayable",
      "type": "function"
    },
    {
      "inputs": [
        {
          "internalType": "address",
          "name": "",
          "type": "address"
        }
      ],
      "name": "balanceOf",
      "outputs": [
        {
          "internalType": "uint256",
          "name": "",
          "type": "uint256"
        }
      ],
      "stateMutability": "view",
      "type": "function"
    },
    {
      "inputs": [
        {
          "internalType": "address",
          "name": "_from",
          "type": "address"
        },
        {
          "internalType": "uint256",
          "name": "_amount",
          "type": "uint256"
        }
      ],
      "name": "burn",
      "outputs": [],
      "stateMutability": "nonpayable",
      "type": "function"
    },
    {
      "inputs": [],
      "name": "decimals",
      "outputs": [
        {
          "internalType": "uint8",
          "name": "",
          "type": "uint8"
        }
      ],
      "stateMutability": "view",
      "type": "function"
    },
    {
      "inputs": [
        {
          "internalType": "address",
          "name": "_to",
          "type": "address"
        }
      ],
      "name": "getReward",
      "outputs": [],
      "stateMutability": "nonpayable",
      "type": "function"
    },
    {
      "inputs": [
        {
          "internalType": "address",
          "name": "_user",
          "type": "address"
        }
      ],
      "name": "getTotalClaimable",
      "outputs": [
        {
          "internalType": "uint256",
          "name": "",
          "type": "uint256"
        }
      ],
      "stateMutability": "view",
      "type": "function"
    },
    {
      "inputs": [
        {
          "internalType": "address",
          "name": "",
          "type": "address"
        }
      ],
      "name": "lastUpdate",
      "outputs": [
        {
          "internalType": "uint256",
          "name": "",
          "type": "uint256"
        }
      ],
      "stateMutability": "view",
      "type": "function"
    },
    {
      "inputs": [],
      "name": "name",
      "outputs": [
        {
          "internalType": "string",
          "name": "",
          "type": "string"
        }
      ],
      "stateMutability": "view",
      "type": "function"
    },
    {
      "inputs": [
        {
          "internalType": "address",
          "name": "",
          "type": "address"
        }
      ],
      "name": "nonces",
      "outputs": [
        {
          "internalType": "uint256",
          "name": "",
          "type": "uint256"
        }
      ],
      "stateMutability": "view",
      "type": "function"
    },
    {
      "inputs": [
        {
          "internalType": "address",
          "name": "owner",
          "type": "address"
        },
        {
          "internalType": "address",
          "name": "spender",
          "type": "address"
        },
        {
          "internalType": "uint256",
          "name": "value",
          "type": "uint256"
        },
        {
          "internalType": "uint256",
          "name": "deadline",
          "type": "uint256"
        },
        {
          "internalType": "uint8",
          "name": "v",
          "type": "uint8"
        },
        {
          "internalType": "bytes32",
          "name": "r",
          "type": "bytes32"
        },
        {
          "internalType": "bytes32",
          "name": "s",
          "type": "bytes32"
        }
      ],
      "name": "permit",
      "outputs": [],
      "stateMutability": "nonpayable",
      "type": "function"
    },
    {
      "inputs": [
        {
          "internalType": "address",
          "name": "",
          "type": "address"
        }
      ],
      "name": "rewards",
      "outputs": [
        {
          "internalType": "uint256",
          "name": "",
          "type": "uint256"
        }
      ],
      "stateMutability": "view",
      "type": "function"
    },
    {
      "inputs": [],
      "name": "robosContract",
      "outputs": [
        {
          "internalType": "contract IRobos",
          "name": "",
          "type": "address"
        }
      ],
      "stateMutability": "view",
      "type": "function"
    },
    {
      "inputs": [],
      "name": "symbol",
      "outputs": [
        {
          "internalType": "string",
          "name": "",
          "type": "string"
        }
      ],
      "stateMutability": "view",
      "type": "function"
    },
    {
      "inputs": [],
      "name": "totalSupply",
      "outputs": [
        {
          "internalType": "uint256",
          "name": "",
          "type": "uint256"
        }
      ],
      "stateMutability": "view",
      "type": "function"
    },
    {
      "inputs": [
        {
          "internalType": "address",
          "name": "to",
          "type": "address"
        },
        {
          "internalType": "uint256",
          "name": "amount",
          "type": "uint256"
        }
      ],
      "name": "transfer",
      "outputs": [
        {
          "internalType": "bool",
          "name": "",
          "type": "bool"
        }
      ],
      "stateMutability": "nonpayable",
      "type": "function"
    },
    {
      "inputs": [
        {
          "internalType": "address",
          "name": "from",
          "type": "address"
        },
        {
          "internalType": "address",
          "name": "to",
          "type": "address"
        },
        {
          "internalType": "uint256",
          "name": "amount",
          "type": "uint256"
        }
      ],
      "name": "transferFrom",
      "outputs": [
        {
          "internalType": "bool",
          "name": "",
          "type": "bool"
        }
      ],
      "stateMutability": "nonpayable",
      "type": "function"
    },
    {
      "inputs": [
        {
          "internalType": "address",
          "name": "_from",
          "type": "address"
        },
        {
          "internalType": "address",
          "name": "_to",
          "type": "address"
        },
        {
          "internalType": "uint256",
          "name": "_tokenId",
          "type": "uint256"
        }
      ],
      "name": "updateReward",
      "outputs": [],
      "stateMutability": "nonpayable",
      "type": "function"
    },
    {
      "inputs": [
        {
          "internalType": "address",
          "name": "_user",
          "type": "address"
        },
        {
          "internalType": "uint256",
          "name": "_amount",
          "type": "uint256"
        }
      ],
      "name": "updateRewardOnMint",
      "outputs": [],
      "stateMutability": "nonpayable",
      "type": "function"
    }
  ],
  "bytecode": "0x60e06040523480156200001157600080fd5b50604051620020c1380380620020c183398101604081905262000034916200024b565b604080518082018252600b81526a2137b63a39902a37b5b2b760a91b602080830191825283518085019094526004845263424c545360e01b908401528151919291601291620000879160009190620001a5565b5081516200009d906001906020850190620001a5565b507fff0000000000000000000000000000000000000000000000000000000000000060f882901b166080524660a052620000d662000103565b60c0525050600880546001600160a01b0319166001600160a01b0393909316929092179091555062000395565b60007f8b73c3c69bb8fe3d512ecc4cf759cc79239f7b179b0ffacaa9a75d522b39400f60006040516200013791906200027b565b60408051918290038220828201825260018352603160f81b60209384015290516200018a93927fc89efdaa54c0f20c7adf612882df0950f5a951637e0307cdcb4c672f298b8bc691469130910162000320565b60405160208183030381529060405280519060200120905090565b828054620001b39062000358565b90600052602060002090601f016020900481019282620001d7576000855562000222565b82601f10620001f257805160ff191683800117855562000222565b8280016001018555821562000222579182015b828111156200022257825182559160200191906001019062000205565b506200023092915062000234565b5090565b5b8082111562000230576000815560010162000235565b6000602082840312156200025d578081fd5b81516001600160a01b038116811462000274578182fd5b9392505050565b81546000908190600281046001808316806200029857607f831692505b6020808410821415620002b957634e487b7160e01b87526022600452602487fd5b818015620002d05760018114620002e25762000312565b60ff1986168952848901965062000312565b620002ed8a6200034c565b885b868110156200030a5781548b820152908501908301620002ef565b505084890196505b509498975050505050505050565b9485526020850193909352604084019190915260608301526001600160a01b0316608082015260a00190565b60009081526020902090565b6002810460018216806200036d57607f821691505b602082108114156200038f57634e487b7160e01b600052602260045260246000fd5b50919050565b60805160f81c60a05160c051611cf9620003c860003960006110830152600061104f015260006110290152611cf96000f3fe608060405234801561001057600080fd5b50600436106101ae5760003560e01c80636fd6d15c116100ee578063bdd38f5911610097578063cc240c0111610071578063cc240c0114610328578063d505accf1461033b578063dd62ed3e1461034e578063efe7a50414610361576101ae565b8063bdd38f59146102fa578063c00007b014610302578063cb03fb1e14610315576101ae565b806395d89b41116100c857806395d89b41146102cc5780639dc29fac146102d4578063a9059cbb146102e7576101ae565b80636fd6d15c1461029e57806370a08231146102a65780637ecebe00146102b9576101ae565b80632c8e8dfa1161015b5780633644e515116101355780633644e5151461027157806341910f90146102795780635b89e63914610281578063688705d314610289576101ae565b80632c8e8dfa1461023f57806330adf81f14610254578063313ce5671461025c576101ae565b806318160ddd1161018c57806318160ddd1461021157806323b872dd14610219578063267e8ab61461022c576101ae565b806306fdde03146101b35780630700037d146101d1578063095ea7b3146101f1575b600080fd5b6101bb610369565b6040516101c89190611acc565b60405180910390f35b6101e46101df36600461181c565b6103f7565b6040516101c89190611a45565b6102046101ff366004611914565b610409565b6040516101c89190611a3a565b6101e4610473565b610204610227366004611868565b610479565b6101e461023a36600461181c565b610571565b61025261024d366004611868565b61083e565b005b6101e4611003565b610264611027565b6040516101c89190611bea565b6101e461104b565b6101e46110a8565b6101e46110b4565b6102916110c0565b6040516101c89190611a26565b6101e46110cf565b6101e46102b436600461181c565b6110db565b6101e46102c736600461181c565b6110ed565b6101bb6110ff565b6102526102e2366004611914565b61110c565b6102046102f5366004611914565b611144565b6101e46111ba565b61025261031036600461181c565b6111c6565b6101e461032336600461181c565b611277565b610252610336366004611914565b611289565b6102526103493660046118a3565b611459565b6101e461035c366004611836565b61162a565b6101e4611647565b6000805461037690611c72565b80601f01602080910402602001604051908101604052809291908181526020018280546103a290611c72565b80156103ef5780601f106103c4576101008083540402835291602001916103ef565b820191906000526020600020905b8154815290600101906020018083116103d257829003601f168201915b505050505081565b60066020526000908152604090205481565b3360008181526004602090815260408083206001600160a01b038716808552925280832085905551919290917f8c5be1e5ebec7d5bd14f71427d1e84f3dd0314c0f7b2291e5b200ac8c7c3b92590610462908690611a45565b60405180910390a350600192915050565b60025481565b6001600160a01b0383166000908152600460209081526040808320338452909152812054600019146104de576001600160a01b0384166000908152600460209081526040808320338452909152812080548492906104d8908490611c5b565b90915550505b6001600160a01b03841660009081526003602052604081208054849290610506908490611c5b565b90915550506001600160a01b03808416600081815260036020526040908190208054860190555190918616907fddf252ad1be2c89b69c2b068fc378daa952ba7f163c4a11628f55a4df523b3ef9061055f908690611a45565b60405180910390a35060019392505050565b600080610582426374c4ebbd61164f565b6001600160a01b0384166000908152600760205260408120549192509062015180906105ae9084611c5b565b6105c090671bc16d674ec80000611c3c565b6008546040516338712d8d60e01b81526001600160a01b03909116906338712d8d906105f0908990600401611a26565b60206040518083038186803b15801561060857600080fd5b505afa15801561061c573d6000803e3d6000fd5b505050506040513d601f19601f82011682018060405250810190610640919061193d565b61064a9190611c3c565b6106549190611c1c565b6001600160a01b0385166000908152600760205260408120549192509062015180906106809085611c5b565b610692906729a2241af62c0000611c3c565b6008546040516338712d8d60e01b81526001600160a01b03909116906338712d8d906106c2908a90600401611a26565b60206040518083038186803b1580156106da57600080fd5b505afa1580156106ee573d6000803e3d6000fd5b505050506040513d601f19601f82011682018060405250810190610712919061193d565b61071c9190611c3c565b6107269190611c1c565b6001600160a01b0386166000908152600760205260408120549192509062015180906107529086611c5b565b61076490670de0b6b3a7640000611c3c565b60085460405163c627b76f60e01b81526001600160a01b039091169063c627b76f90610794908b90600401611a26565b60206040518083038186803b1580156107ac57600080fd5b505afa1580156107c0573d6000803e3d6000fd5b505050506040513d601f19601f820116820180604052508101906107e4919061193d565b6107ee9190611c3c565b6107f89190611c1c565b9050816108058285611c04565b61080f9190611c04565b6001600160a01b0387166000908152600660205260409020546108329190611c04565b9450505050505b919050565b6008546001600160a01b031633146108715760405162461bcd60e51b815260040161086890611b56565b60405180910390fd5b600d811015610af157600061088a426374c4ebbd61164f565b6001600160a01b038516600090815260076020526040902054909150801561098e57620151806108ba8284611c5b565b6108cc906729a2241af62c0000611c3c565b6008546040516338712d8d60e01b81526001600160a01b03909116906338712d8d906108fc908a90600401611a26565b60206040518083038186803b15801561091457600080fd5b505afa158015610928573d6000803e3d6000fd5b505050506040513d601f19601f8201168201806040525081019061094c919061193d565b6109569190611c3c565b6109609190611c1c565b6001600160a01b03861660009081526006602052604081208054909190610988908490611c04565b90915550505b6374c4ebbd81146109b5576001600160a01b03851660009081526007602052604090208290555b6001600160a01b03841615610aee576001600160a01b0384166000908152600760205260409020548015610ac557620151806109f18285611c5b565b610a03906729a2241af62c0000611c3c565b6008546040516338712d8d60e01b81526001600160a01b03909116906338712d8d90610a33908a90600401611a26565b60206040518083038186803b158015610a4b57600080fd5b505afa158015610a5f573d6000803e3d6000fd5b505050506040513d601f19601f82011682018060405250810190610a83919061193d565b610a8d9190611c3c565b610a979190611c1c565b6001600160a01b03861660009081526006602052604081208054909190610abf908490611c04565b90915550505b6374c4ebbd8114610aec576001600160a01b03851660009081526007602052604090208390555b505b50505b600c81118015610b02575061138981105b15610d7e576000610b17426374c4ebbd61164f565b6001600160a01b0385166000908152600760205260409020549091508015610c1b5762015180610b478284611c5b565b610b5990671bc16d674ec80000611c3c565b6008546040516338712d8d60e01b81526001600160a01b03909116906338712d8d90610b89908a90600401611a26565b60206040518083038186803b158015610ba157600080fd5b505afa158015610bb5573d6000803e3d6000fd5b505050506040513d601f19601f82011682018060405250810190610bd9919061193d565b610be39190611c3c565b610bed9190611c1c565b6001600160a01b03861660009081526006602052604081208054909190610c15908490611c04565b90915550505b6374c4ebbd8114610c42576001600160a01b03851660009081526007602052604090208290555b6001600160a01b03841615610d7b576001600160a01b0384166000908152600760205260409020548015610d525762015180610c7e8285611c5b565b610c9090671bc16d674ec80000611c3c565b6008546040516338712d8d60e01b81526001600160a01b03909116906338712d8d90610cc0908a90600401611a26565b60206040518083038186803b158015610cd857600080fd5b505afa158015610cec573d6000803e3d6000fd5b505050506040513d601f19601f82011682018060405250810190610d10919061193d565b610d1a9190611c3c565b610d249190611c1c565b6001600160a01b03861660009081526006602052604081208054909190610d4c908490611c04565b90915550505b6374c4ebbd8114610d79576001600160a01b03851660009081526007602052604090208390555b505b50505b6113898110610ffe576000610d97426374c4ebbd61164f565b6001600160a01b0385166000908152600760205260409020549091508015610e9b5762015180610dc78284611c5b565b610dd990670de0b6b3a7640000611c3c565b60085460405163c627b76f60e01b81526001600160a01b039091169063c627b76f90610e09908a90600401611a26565b60206040518083038186803b158015610e2157600080fd5b505afa158015610e35573d6000803e3d6000fd5b505050506040513d601f19601f82011682018060405250810190610e59919061193d565b610e639190611c3c565b610e6d9190611c1c565b6001600160a01b03861660009081526006602052604081208054909190610e95908490611c04565b90915550505b6374c4ebbd8114610ec2576001600160a01b03851660009081526007602052604090208290555b6001600160a01b03841615610ffb576001600160a01b0384166000908152600760205260409020548015610fd25762015180610efe8285611c5b565b610f1090670de0b6b3a7640000611c3c565b60085460405163c627b76f60e01b81526001600160a01b039091169063c627b76f90610f40908a90600401611a26565b60206040518083038186803b158015610f5857600080fd5b505afa158015610f6c573d6000803e3d6000fd5b505050506040513d601f19601f82011682018060405250810190610f90919061193d565b610f9a9190611c3c565b610fa49190611c1c565b6001600160a01b03861660009081526006602052604081208054909190610fcc908490611c04565b90915550505b6374c4ebbd8114610ff9576001600160a01b03851660009081526007602052604090208390555b505b50505b505050565b7f6e71edae12b1b97f4d1f60370fef10105fa2faae0126114a169c64845d6126c981565b7f000000000000000000000000000000000000000000000000000000000000000081565b60007f000000000000000000000000000000000000000000000000000000000000000046146110815761107c611667565b6110a3565b7f00000000000000000000000000000000000000000000000000000000000000005b905090565b671bc16d674ec8000081565b6729a2241af62c000081565b6008546001600160a01b031681565b670de0b6b3a764000081565b60036020526000908152604090205481565b60056020526000908152604090205481565b6001805461037690611c72565b6008546001600160a01b031633146111365760405162461bcd60e51b815260040161086890611b56565b6111408282611721565b5050565b33600090815260036020526040812080548391908390611165908490611c5b565b90915550506001600160a01b038316600081815260036020526040908190208054850190555133907fddf252ad1be2c89b69c2b068fc378daa952ba7f163c4a11628f55a4df523b3ef90610462908690611a45565b678ac7230489e8000081565b6008546001600160a01b031633146111f05760405162461bcd60e51b815260040161086890611b56565b6001600160a01b0381166000908152600660205260409020548015611140576001600160a01b03821660009081526006602052604081205561123282826117a1565b816001600160a01b03167fe2403640ba68fed3a2f88b7557551d1993f84b99bb10ff833f0cf8db0c5e04868260405161126b9190611a45565b60405180910390a25050565b60076020526000908152604090205481565b6008546001600160a01b031633146112b35760405162461bcd60e51b815260040161086890611b56565b60006112c3426374c4ebbd61164f565b6001600160a01b03841660009081526007602052604090205490915080156113f6576112f7678ac7230489e8000084611c3c565b620151806113058385611c5b565b61131790671bc16d674ec80000611c3c565b6008546040516338712d8d60e01b81526001600160a01b03909116906338712d8d90611347908a90600401611a26565b60206040518083038186803b15801561135f57600080fd5b505afa158015611373573d6000803e3d6000fd5b505050506040513d601f19601f82011682018060405250810190611397919061193d565b6113a19190611c3c565b6113ab9190611c1c565b6001600160a01b0386166000908152600660205260409020546113ce9190611c04565b6113d89190611c04565b6001600160a01b038516600090815260066020526040902055611453565b611408678ac7230489e8000084611c3c565b6001600160a01b03851660009081526006602052604090205461142b9190611c04565b6001600160a01b03851660009081526006602090815260408083209390935560079052208290555b50505050565b428410156114795760405162461bcd60e51b815260040161086890611bb3565b600061148361104b565b6001600160a01b03891660009081526005602090815260409182902080546001810190915591516114e0927f6e71edae12b1b97f4d1f60370fef10105fa2faae0126114a169c64845d6126c9928d928d928d9290918d9101611a4e565b604051602081830303815290604052805190602001206040516020016115079291906119f0565b6040516020818303038152906040528051906020012090506000600182868686604051600081526020016040526040516115449493929190611aae565b6020604051602081039080840390855afa158015611566573d6000803e3d6000fd5b5050604051601f1901519150506001600160a01b0381161580159061159c5750886001600160a01b0316816001600160a01b0316145b6115b85760405162461bcd60e51b815260040161086890611b1f565b6001600160a01b0390811660009081526004602090815260408083208b85168085529252918290208990559051909250908916907f8c5be1e5ebec7d5bd14f71427d1e84f3dd0314c0f7b2291e5b200ac8c7c3b92590611619908990611a45565b60405180910390a350505050505050565b600460209081526000928352604080842090915290825290205481565b6374c4ebbd81565b600081831061165e5781611660565b825b9392505050565b60007f8b73c3c69bb8fe3d512ecc4cf759cc79239f7b179b0ffacaa9a75d522b39400f60006040516116999190611955565b604080519182900382208282018252600183527f3100000000000000000000000000000000000000000000000000000000000000602093840152905161170693927fc89efdaa54c0f20c7adf612882df0950f5a951637e0307cdcb4c672f298b8bc6914691309101611a82565b60405160208183030381529060405280519060200120905090565b6001600160a01b03821660009081526003602052604081208054839290611749908490611c5b565b90915550506002805482900390556040516000906001600160a01b038416907fddf252ad1be2c89b69c2b068fc378daa952ba7f163c4a11628f55a4df523b3ef90611795908590611a45565b60405180910390a35050565b80600260008282546117b39190611c04565b90915550506001600160a01b038216600081815260036020526040808220805485019055517fddf252ad1be2c89b69c2b068fc378daa952ba7f163c4a11628f55a4df523b3ef90611795908590611a45565b80356001600160a01b038116811461083957600080fd5b60006020828403121561182d578081fd5b61166082611805565b60008060408385031215611848578081fd5b61185183611805565b915061185f60208401611805565b90509250929050565b60008060006060848603121561187c578081fd5b61188584611805565b925061189360208501611805565b9150604084013590509250925092565b600080600080600080600060e0888a0312156118bd578283fd5b6118c688611805565b96506118d460208901611805565b95506040880135945060608801359350608088013560ff811681146118f7578384fd5b9699959850939692959460a0840135945060c09093013592915050565b60008060408385031215611926578182fd5b61192f83611805565b946020939093013593505050565b60006020828403121561194e578081fd5b5051919050565b815460009081906002810460018083168061197157607f831692505b602080841082141561199157634e487b7160e01b87526022600452602487fd5b8180156119a557600181146119b6576119e2565b60ff198616895284890196506119e2565b6119bf8a611bf8565b885b868110156119da5781548b8201529085019083016119c1565b505084890196505b509498975050505050505050565b7f190100000000000000000000000000000000000000000000000000000000000081526002810192909252602282015260420190565b6001600160a01b0391909116815260200190565b901515815260200190565b90815260200190565b9586526001600160a01b0394851660208701529290931660408501526060840152608083019190915260a082015260c00190565b9485526020850193909352604084019190915260608301526001600160a01b0316608082015260a00190565b93845260ff9290921660208401526040830152606082015260800190565b6000602080835283518082850152825b81811015611af857858101830151858201604001528201611adc565b81811115611b095783604083870101525b50601f01601f1916929092016040019392505050565b60208082526018908201527f494e56414c49445f5045524d49545f5349474e41545552450000000000000000604082015260600190565b60208082526022908201527f4f6e6c7920526f626f7320636f6e74726163742063616e2063616c6c2074686960408201527f732e000000000000000000000000000000000000000000000000000000000000606082015260800190565b60208082526017908201527f5045524d49545f444541444c494e455f45585049524544000000000000000000604082015260600190565b60ff91909116815260200190565b60009081526020902090565b60008219821115611c1757611c17611cad565b500190565b600082611c3757634e487b7160e01b81526012600452602481fd5b500490565b6000816000190483118215151615611c5657611c56611cad565b500290565b600082821015611c6d57611c6d611cad565b500390565b600281046001821680611c8657607f821691505b60208210811415611ca757634e487b7160e01b600052602260045260246000fd5b50919050565b634e487b7160e01b600052601160045260246000fdfea2646970667358221220eac26b6bf21e9c3ffe19ffdabf80385aff7461a5cc632ce65eb303506f22fbdc64736f6c63430008000033",
  "linkReferences": {},
  "deployedLinkReferences": {}
}