{
  "_format": "hh-sol-artifact-1",
  "contractName": "RobosNFT",
  "sourceName": "contracts/RobosNFT.sol",
  "abi": [
    {
      "inputs": [
        {
          "internalType": "string",
          "name": "_name",
          "type": "string"
        },
        {
          "internalType": "string",
          "name": "_symbol",
          "type": "string"
        },
        {
          "internalType": "string",
          "name": "_initBaseURI",
          "type": "string"
        },
        {
          "internalType": "string[]",
          "name": "_names",
          "type": "string[]"
        },
        {
          "internalType": "uint256[]",
          "name": "_ids",
          "type": "uint256[]"
        }
      ],
      "stateMutability": "nonpayable",
      "type": "constructor"
    },
    {
      "anonymous": false,
      "inputs": [
        {
          "indexed": true,
          "internalType": "address",
          "name": "owner",
          "type": "address"
        },
        {
          "indexed": true,
          "internalType": "address",
          "name": "approved",
          "type": "address"
        },
        {
          "indexed": true,
          "internalType": "uint256",
          "name": "tokenId",
          "type": "uint256"
        }
      ],
      "name": "Approval",
      "type": "event"
    },
    {
      "anonymous": false,
      "inputs": [
        {
          "indexed": true,
          "internalType": "address",
          "name": "owner",
          "type": "address"
        },
        {
          "indexed": true,
          "internalType": "address",
          "name": "operator",
          "type": "address"
        },
        {
          "indexed": false,
          "internalType": "bool",
          "name": "approved",
          "type": "bool"
        }
      ],
      "name": "ApprovalForAll",
      "type": "event"
    },
    {
      "anonymous": false,
      "inputs": [
        {
          "indexed": true,
          "internalType": "uint256",
          "name": "tokenId",
          "type": "uint256"
        },
        {
          "indexed": false,
          "internalType": "string",
          "name": "bio",
          "type": "string"
        }
      ],
      "name": "BioChange",
      "type": "event"
    },
    {
      "anonymous": false,
      "inputs": [
        {
          "indexed": true,
          "internalType": "uint256",
          "name": "tokenId",
          "type": "uint256"
        },
        {
          "indexed": false,
          "internalType": "string",
          "name": "newName",
          "type": "string"
        }
      ],
      "name": "NameChange",
      "type": "event"
    },
    {
      "anonymous": false,
      "inputs": [
        {
          "indexed": true,
          "internalType": "address",
          "name": "previousOwner",
          "type": "address"
        },
        {
          "indexed": true,
          "internalType": "address",
          "name": "newOwner",
          "type": "address"
        }
      ],
      "name": "OwnershipTransferred",
      "type": "event"
    },
    {
      "anonymous": false,
      "inputs": [
        {
          "indexed": true,
          "internalType": "address",
          "name": "from",
          "type": "address"
        },
        {
          "indexed": true,
          "internalType": "address",
          "name": "to",
          "type": "address"
        },
        {
          "indexed": true,
          "internalType": "uint256",
          "name": "tokenId",
          "type": "uint256"
        }
      ],
      "name": "Transfer",
      "type": "event"
    },
    {
      "inputs": [],
      "name": "BIO_CHANGE_PRICE",
      "outputs": [
        {
          "internalType": "uint256",
          "name": "",
          "type": "uint256"
        }
      ],
      "stateMutability": "view",
      "type": "function"
    },
    {
      "inputs": [],
      "name": "MANUFACTURE_PRICE",
      "outputs": [
        {
          "internalType": "uint256",
          "name": "",
          "type": "uint256"
        }
      ],
      "stateMutability": "view",
      "type": "function"
    },
    {
      "inputs": [
        {
          "internalType": "address",
          "name": "",
          "type": "address"
        }
      ],
      "name": "addressMintedBalance",
      "outputs": [
        {
          "internalType": "uint256",
          "name": "",
          "type": "uint256"
        }
      ],
      "stateMutability": "view",
      "type": "function"
    },
    {
      "inputs": [
        {
          "internalType": "address",
          "name": "to",
          "type": "address"
        },
        {
          "internalType": "uint256",
          "name": "tokenId",
          "type": "uint256"
        }
      ],
      "name": "approve",
      "outputs": [],
      "stateMutability": "nonpayable",
      "type": "function"
    },
    {
      "inputs": [
        {
          "internalType": "address",
          "name": "",
          "type": "address"
        }
      ],
      "name": "balanceJR",
      "outputs": [
        {
          "internalType": "uint256",
          "name": "",
          "type": "uint256"
        }
      ],
      "stateMutability": "view",
      "type": "function"
    },
    {
      "inputs": [
        {
          "internalType": "address",
          "name": "",
          "type": "address"
        }
      ],
      "name": "balanceOG",
      "outputs": [
        {
          "internalType": "uint256",
          "name": "",
          "type": "uint256"
        }
      ],
      "stateMutability": "view",
      "type": "function"
    },
    {
      "inputs": [
        {
          "internalType": "address",
          "name": "owner",
          "type": "address"
        }
      ],
      "name": "balanceOf",
      "outputs": [
        {
          "internalType": "uint256",
          "name": "",
          "type": "uint256"
        }
      ],
      "stateMutability": "view",
      "type": "function"
    },
    {
      "inputs": [],
      "name": "baseExtension",
      "outputs": [
        {
          "internalType": "string",
          "name": "",
          "type": "string"
        }
      ],
      "stateMutability": "view",
      "type": "function"
    },
    {
      "inputs": [],
      "name": "baseURI",
      "outputs": [
        {
          "internalType": "string",
          "name": "",
          "type": "string"
        }
      ],
      "stateMutability": "view",
      "type": "function"
    },
    {
      "inputs": [
        {
          "internalType": "uint256",
          "name": "",
          "type": "uint256"
        }
      ],
      "name": "bio",
      "outputs": [
        {
          "internalType": "string",
          "name": "",
          "type": "string"
        }
      ],
      "stateMutability": "view",
      "type": "function"
    },
    {
      "inputs": [],
      "name": "boltsToken",
      "outputs": [
        {
          "internalType": "contract BoltsToken",
          "name": "",
          "type": "address"
        }
      ],
      "stateMutability": "view",
      "type": "function"
    },
    {
      "inputs": [],
      "name": "breeding",
      "outputs": [
        {
          "internalType": "bool",
          "name": "",
          "type": "bool"
        }
      ],
      "stateMutability": "view",
      "type": "function"
    },
    {
      "inputs": [],
      "name": "bulkBuyLimit",
      "outputs": [
        {
          "internalType": "uint16",
          "name": "",
          "type": "uint16"
        }
      ],
      "stateMutability": "view",
      "type": "function"
    },
    {
      "inputs": [],
      "name": "burn",
      "outputs": [
        {
          "internalType": "address",
          "name": "",
          "type": "address"
        }
      ],
      "stateMutability": "view",
      "type": "function"
    },
    {
      "inputs": [
        {
          "internalType": "uint256",
          "name": "tokenId",
          "type": "uint256"
        },
        {
          "internalType": "string",
          "name": "_bio",
          "type": "string"
        }
      ],
      "name": "changeBio",
      "outputs": [],
      "stateMutability": "nonpayable",
      "type": "function"
    },
    {
      "inputs": [
        {
          "internalType": "uint256",
          "name": "tokenId",
          "type": "uint256"
        },
        {
          "internalType": "string",
          "name": "newName",
          "type": "string"
        }
      ],
      "name": "changeName",
      "outputs": [],
      "stateMutability": "nonpayable",
      "type": "function"
    },
    {
      "inputs": [
        {
          "internalType": "uint256",
          "name": "_price",
          "type": "uint256"
        }
      ],
      "name": "changeNamePrice",
      "outputs": [],
      "stateMutability": "nonpayable",
      "type": "function"
    },
    {
      "inputs": [],
      "name": "disableBreeding",
      "outputs": [],
      "stateMutability": "nonpayable",
      "type": "function"
    },
    {
      "inputs": [],
      "name": "enableBreeding",
      "outputs": [],
      "stateMutability": "nonpayable",
      "type": "function"
    },
    {
      "inputs": [
        {
          "internalType": "uint256",
          "name": "tokenId",
          "type": "uint256"
        }
      ],
      "name": "generationOf",
      "outputs": [
        {
          "internalType": "uint256",
          "name": "generation",
          "type": "uint256"
        }
      ],
      "stateMutability": "view",
      "type": "function"
    },
    {
      "inputs": [
        {
          "internalType": "uint256",
          "name": "tokenId",
          "type": "uint256"
        }
      ],
      "name": "getApproved",
      "outputs": [
        {
          "internalType": "address",
          "name": "",
          "type": "address"
        }
      ],
      "stateMutability": "view",
      "type": "function"
    },
    {
      "inputs": [],
      "name": "getReward",
      "outputs": [],
      "stateMutability": "nonpayable",
      "type": "function"
    },
    {
      "inputs": [
        {
          "internalType": "address",
          "name": "owner",
          "type": "address"
        },
        {
          "internalType": "address",
          "name": "operator",
          "type": "address"
        }
      ],
      "name": "isApprovedForAll",
      "outputs": [
        {
          "internalType": "bool",
          "name": "",
          "type": "bool"
        }
      ],
      "stateMutability": "view",
      "type": "function"
    },
    {
      "inputs": [
        {
          "internalType": "string",
          "name": "nameString",
          "type": "string"
        }
      ],
      "name": "isNameReserved",
      "outputs": [
        {
          "internalType": "bool",
          "name": "",
          "type": "bool"
        }
      ],
      "stateMutability": "view",
      "type": "function"
    },
    {
      "inputs": [
        {
          "internalType": "address",
          "name": "_user",
          "type": "address"
        }
      ],
      "name": "isWhitelisted",
      "outputs": [
        {
          "internalType": "bool",
          "name": "",
          "type": "bool"
        }
      ],
      "stateMutability": "view",
      "type": "function"
    },
    {
      "inputs": [],
      "name": "lastTokenId",
      "outputs": [
        {
          "internalType": "uint256",
          "name": "tokenId",
          "type": "uint256"
        }
      ],
      "stateMutability": "view",
      "type": "function"
    },
    {
      "inputs": [
        {
          "internalType": "uint256",
          "name": "",
          "type": "uint256"
        }
      ],
      "name": "manufactureHistory",
      "outputs": [
        {
          "internalType": "uint256",
          "name": "tokenId",
          "type": "uint256"
        },
        {
          "internalType": "uint256",
          "name": "time",
          "type": "uint256"
        }
      ],
      "stateMutability": "view",
      "type": "function"
    },
    {
      "inputs": [
        {
          "internalType": "uint256",
          "name": "tokenIdA",
          "type": "uint256"
        },
        {
          "internalType": "uint256",
          "name": "tokenIdB",
          "type": "uint256"
        }
      ],
      "name": "manufactureRoboJr",
      "outputs": [],
      "stateMutability": "payable",
      "type": "function"
    },
    {
      "inputs": [
        {
          "internalType": "uint256",
          "name": "amount",
          "type": "uint256"
        }
      ],
      "name": "mintGenesisRobo",
      "outputs": [],
      "stateMutability": "payable",
      "type": "function"
    },
    {
      "inputs": [],
      "name": "name",
      "outputs": [
        {
          "internalType": "string",
          "name": "",
          "type": "string"
        }
      ],
      "stateMutability": "view",
      "type": "function"
    },
    {
      "inputs": [],
      "name": "nameChangePrice",
      "outputs": [
        {
          "internalType": "uint256",
          "name": "",
          "type": "uint256"
        }
      ],
      "stateMutability": "view",
      "type": "function"
    },
    {
      "inputs": [],
      "name": "nftPerAddress",
      "outputs": [
        {
          "internalType": "uint16",
          "name": "",
          "type": "uint16"
        }
      ],
      "stateMutability": "view",
      "type": "function"
    },
    {
      "inputs": [],
      "name": "owner",
      "outputs": [
        {
          "internalType": "address",
          "name": "",
          "type": "address"
        }
      ],
      "stateMutability": "view",
      "type": "function"
    },
    {
      "inputs": [
        {
          "internalType": "uint256",
          "name": "tokenId",
          "type": "uint256"
        }
      ],
      "name": "ownerOf",
      "outputs": [
        {
          "internalType": "address",
          "name": "",
          "type": "address"
        }
      ],
      "stateMutability": "view",
      "type": "function"
    },
    {
      "inputs": [
        {
          "internalType": "bool",
          "name": "_state",
          "type": "bool"
        }
      ],
      "name": "pause",
      "outputs": [],
      "stateMutability": "nonpayable",
      "type": "function"
    },
    {
      "inputs": [],
      "name": "paused",
      "outputs": [
        {
          "internalType": "bool",
          "name": "",
          "type": "bool"
        }
      ],
      "stateMutability": "view",
      "type": "function"
    },
    {
      "inputs": [],
      "name": "preSale",
      "outputs": [
        {
          "internalType": "bool",
          "name": "",
          "type": "bool"
        }
      ],
      "stateMutability": "view",
      "type": "function"
    },
    {
      "inputs": [],
      "name": "price",
      "outputs": [
        {
          "internalType": "uint256",
          "name": "",
          "type": "uint256"
        }
      ],
      "stateMutability": "view",
      "type": "function"
    },
    {
      "inputs": [],
      "name": "renounceOwnership",
      "outputs": [],
      "stateMutability": "nonpayable",
      "type": "function"
    },
    {
      "inputs": [],
      "name": "roboJrMaxSupply",
      "outputs": [
        {
          "internalType": "uint256",
          "name": "",
          "type": "uint256"
        }
      ],
      "stateMutability": "view",
      "type": "function"
    },
    {
      "inputs": [],
      "name": "roboJrSupply",
      "outputs": [
        {
          "internalType": "uint256",
          "name": "",
          "type": "uint256"
        }
      ],
      "stateMutability": "view",
      "type": "function"
    },
    {
      "inputs": [],
      "name": "roboMaxSupply",
      "outputs": [
        {
          "internalType": "uint256",
          "name": "",
          "type": "uint256"
        }
      ],
      "stateMutability": "view",
      "type": "function"
    },
    {
      "inputs": [
        {
          "internalType": "uint256",
          "name": "",
          "type": "uint256"
        }
      ],
      "name": "robosManufacture",
      "outputs": [
        {
          "internalType": "uint256",
          "name": "",
          "type": "uint256"
        }
      ],
      "stateMutability": "view",
      "type": "function"
    },
    {
      "inputs": [],
      "name": "robosSupply",
      "outputs": [
        {
          "internalType": "uint256",
          "name": "",
          "type": "uint256"
        }
      ],
      "stateMutability": "view",
      "type": "function"
    },
    {
      "inputs": [
        {
          "internalType": "uint256",
          "name": "",
          "type": "uint256"
        }
      ],
      "name": "roboz",
      "outputs": [
        {
          "internalType": "uint8",
          "name": "generation",
          "type": "uint8"
        }
      ],
      "stateMutability": "view",
      "type": "function"
    },
    {
      "inputs": [
        {
          "internalType": "address",
          "name": "from",
          "type": "address"
        },
        {
          "internalType": "address",
          "name": "to",
          "type": "address"
        },
        {
          "internalType": "uint256",
          "name": "tokenId",
          "type": "uint256"
        }
      ],
      "name": "safeTransferFrom",
      "outputs": [],
      "stateMutability": "nonpayable",
      "type": "function"
    },
    {
      "inputs": [
        {
          "internalType": "address",
          "name": "from",
          "type": "address"
        },
        {
          "internalType": "address",
          "name": "to",
          "type": "address"
        },
        {
          "internalType": "uint256",
          "name": "tokenId",
          "type": "uint256"
        },
        {
          "internalType": "bytes",
          "name": "_data",
          "type": "bytes"
        }
      ],
      "name": "safeTransferFrom",
      "outputs": [],
      "stateMutability": "nonpayable",
      "type": "function"
    },
    {
      "inputs": [
        {
          "internalType": "address",
          "name": "operator",
          "type": "address"
        },
        {
          "internalType": "bool",
          "name": "approved",
          "type": "bool"
        }
      ],
      "name": "setApprovalForAll",
      "outputs": [],
      "stateMutability": "nonpayable",
      "type": "function"
    },
    {
      "inputs": [
        {
          "internalType": "string",
          "name": "_newBaseURI",
          "type": "string"
        }
      ],
      "name": "setBaseURI",
      "outputs": [],
      "stateMutability": "nonpayable",
      "type": "function"
    },
    {
      "inputs": [
        {
          "internalType": "address",
          "name": "_yield",
          "type": "address"
        }
      ],
      "name": "setBoltsToken",
      "outputs": [],
      "stateMutability": "nonpayable",
      "type": "function"
    },
    {
      "inputs": [
        {
          "internalType": "uint256",
          "name": "newPrice",
          "type": "uint256"
        }
      ],
      "name": "setMintCost",
      "outputs": [],
      "stateMutability": "nonpayable",
      "type": "function"
    },
    {
      "inputs": [
        {
          "internalType": "bool",
          "name": "_state",
          "type": "bool"
        }
      ],
      "name": "setOnlyPreSale",
      "outputs": [],
      "stateMutability": "nonpayable",
      "type": "function"
    },
    {
      "inputs": [
        {
          "internalType": "uint16",
          "name": "_bulkBuyLimit",
          "type": "uint16"
        }
      ],
      "name": "setTxLimit",
      "outputs": [],
      "stateMutability": "nonpayable",
      "type": "function"
    },
    {
      "inputs": [
        {
          "internalType": "bytes4",
          "name": "interfaceId",
          "type": "bytes4"
        }
      ],
      "name": "supportsInterface",
      "outputs": [
        {
          "internalType": "bool",
          "name": "",
          "type": "bool"
        }
      ],
      "stateMutability": "view",
      "type": "function"
    },
    {
      "inputs": [],
      "name": "symbol",
      "outputs": [
        {
          "internalType": "string",
          "name": "",
          "type": "string"
        }
      ],
      "stateMutability": "view",
      "type": "function"
    },
    {
      "inputs": [
        {
          "internalType": "string",
          "name": "str",
          "type": "string"
        }
      ],
      "name": "toLower",
      "outputs": [
        {
          "internalType": "string",
          "name": "",
          "type": "string"
        }
      ],
      "stateMutability": "pure",
      "type": "function"
    },
    {
      "inputs": [
        {
          "internalType": "uint256",
          "name": "index",
          "type": "uint256"
        }
      ],
      "name": "tokenNameByIndex",
      "outputs": [
        {
          "internalType": "string",
          "name": "",
          "type": "string"
        }
      ],
      "stateMutability": "view",
      "type": "function"
    },
    {
      "inputs": [
        {
          "internalType": "uint256",
          "name": "_tokenId",
          "type": "uint256"
        }
      ],
      "name": "tokenURI",
      "outputs": [
        {
          "internalType": "string",
          "name": "",
          "type": "string"
        }
      ],
      "stateMutability": "view",
      "type": "function"
    },
    {
      "inputs": [
        {
          "internalType": "address",
          "name": "from",
          "type": "address"
        },
        {
          "internalType": "address",
          "name": "to",
          "type": "address"
        },
        {
          "internalType": "uint256",
          "name": "tokenId",
          "type": "uint256"
        }
      ],
      "name": "transferFrom",
      "outputs": [],
      "stateMutability": "nonpayable",
      "type": "function"
    },
    {
      "inputs": [
        {
          "internalType": "address",
          "name": "newOwner",
          "type": "address"
        }
      ],
      "name": "transferOwnership",
      "outputs": [],
      "stateMutability": "nonpayable",
      "type": "function"
    },
    {
      "inputs": [
        {
          "internalType": "string",
          "name": "str",
          "type": "string"
        }
      ],
      "name": "validateName",
      "outputs": [
        {
          "internalType": "bool",
          "name": "",
          "type": "bool"
        }
      ],
      "stateMutability": "pure",
      "type": "function"
    },
    {
      "inputs": [
        {
          "internalType": "uint256",
          "name": "amount",
          "type": "uint256"
        }
      ],
      "name": "whitelistMint",
      "outputs": [],
      "stateMutability": "payable",
      "type": "function"
    },
    {
      "inputs": [
        {
          "internalType": "address[]",
          "name": "_users",
          "type": "address[]"
        }
      ],
      "name": "whitelistUsers",
      "outputs": [],
      "stateMutability": "nonpayable",
      "type": "function"
    },
    {
      "inputs": [
        {
          "internalType": "uint256",
          "name": "",
          "type": "uint256"
        }
      ],
      "name": "whitelistedAddresses",
      "outputs": [
        {
          "internalType": "address",
          "name": "",
          "type": "address"
        }
      ],
      "stateMutability": "view",
      "type": "function"
    },
    {
      "inputs": [],
      "name": "withdraw",
      "outputs": [],
      "stateMutability": "payable",
      "type": "function"
    },
    {
      "inputs": [],
      "name": "xurgi",
      "outputs": [
        {
          "internalType": "address payable",
          "name": "",
          "type": "address"
        }
      ],
      "stateMutability": "view",
      "type": "function"
    }
  ],
  "bytecode": "0x674563918244f4000060065560c06040526005608081905264173539b7b760d91b60a09081526200003491600d919062000959565b50600e8054610100600160ff199092169190911761ff0019161762010000600160b81b031916764be50daf1339da3da8ddc130f8ce54aa10ef2dc600000017905560108054600261ffff199091161790556801158e460913d000006012556113886015556109c4601655348015620000ab57600080fd5b506040516200543838038062005438833981016040819052620000ce9162000b6b565b8484838383838160009080519060200190620000ec92919062000959565b5080516200010290600190602084019062000959565b50505060005b815181101562000266576200014d8382815181106200013757634e487b7160e01b600052603260045260246000fd5b60200260200101516001620002d060201b60201c565b8281815181106200016e57634e487b7160e01b600052603260045260246000fd5b6020026020010151600860008484815181106200019b57634e487b7160e01b600052603260045260246000fd5b602002602001015181526020019081526020016000209080519060200190620001c692919062000959565b50818181518110620001e857634e487b7160e01b600052603260045260246000fd5b60200260200101517f7e632a301794d8d4a81ea7e20f37d1947158d36e66403af04ba85dd194b66f1b8483815181106200023257634e487b7160e01b600052603260045260246000fd5b602002602001015160405162000249919062000cd1565b60405180910390a2806200025d8162000eda565b91505062000108565b5050505050620002856200027f6200031160201b60201c565b62000315565b6200028f62000311565b506200029b8362000367565b67016345785d8a00006011556010805463ffff0000191662080000179055620002c5603c620003cf565b505050505062000f24565b806009620002de846200043c565b604051620002ed919062000c74565b908152604051908190036020019020805491151560ff199092169190911790555050565b3390565b600a80546001600160a01b038381166001600160a01b0319831681179093556040519116919082907f8be0079c531659141344cd1fd0a4f28419497f9722a3daafe3b4186f6b6457e090600090a35050565b6200037162000311565b6001600160a01b03166200038462000611565b6001600160a01b031614620003b65760405162461bcd60e51b8152600401620003ad9062000da4565b60405180910390fd5b8051620003cb90600c90602084019062000959565b5050565b80601354620003df919062000e2b565b60135560005b81811015620003cb573360009081526019602052604081208054916200040b8362000eda565b909155506200042790506200041f62000311565b600062000620565b80620004338162000eda565b915050620003e5565b60606000829050600081516001600160401b038111156200046d57634e487b7160e01b600052604160045260246000fd5b6040519080825280601f01601f19166020018201604052801562000498576020820181803683370190505b50905060005b825181101562000609576041838281518110620004cb57634e487b7160e01b600052603260045260246000fd5b016020015160f81c108015906200050b5750605a8382815181106200050057634e487b7160e01b600052603260045260246000fd5b016020015160f81c11155b156200058f578281815181106200053257634e487b7160e01b600052603260045260246000fd5b602001015160f81c60f81b60f81c60206200054e919062000e46565b60f81b8282815181106200057257634e487b7160e01b600052603260045260246000fd5b60200101906001600160f81b031916908160001a905350620005f4565b828181518110620005b057634e487b7160e01b600052603260045260246000fd5b602001015160f81c60f81b828281518110620005dc57634e487b7160e01b600052603260045260246000fd5b60200101906001600160f81b031916908160001a9053505b80620006008162000eda565b9150506200049e565b509392505050565b600a546001600160a01b031690565b60008160018111156200064357634e487b7160e01b600052602160045260246000fd5b90506200065c600b620006a460201b620027631760201c565b600062000675600b620006ad60201b6200276c1760201c565b6000818152601c60205260409020805460ff191660ff851617905590506200069e8482620006b1565b50505050565b80546001019055565b5490565b620003cb828260405180602001604052806000815250620006d360201b60201c565b620006df838362000712565b620006ee6000848484620007fd565b6200070d5760405162461bcd60e51b8152600401620003ad9062000ce6565b505050565b6001600160a01b0382166200073b5760405162461bcd60e51b8152600401620003ad9062000d6f565b620007468162000936565b15620007665760405162461bcd60e51b8152600401620003ad9062000d38565b62000774600083836200070d565b6001600160a01b03821660009081526003602052604081208054600192906200079f90849062000e2b565b909155505060008181526002602052604080822080546001600160a01b0319166001600160a01b03861690811790915590518392907fddf252ad1be2c89b69c2b068fc378daa952ba7f163c4a11628f55a4df523b3ef908290a45050565b60006200081e846001600160a01b03166200095360201b620027701760201c565b156200092a576001600160a01b03841663150b7a026200083d62000311565b8786866040518563ffffffff1660e01b815260040162000861949392919062000c92565b602060405180830381600087803b1580156200087c57600080fd5b505af1925050508015620008af575060408051601f3d908101601f19168201909252620008ac9181019062000b3a565b60015b6200090f573d808015620008e0576040519150601f19603f3d011682016040523d82523d6000602084013e620008e5565b606091505b508051620009075760405162461bcd60e51b8152600401620003ad9062000ce6565b805181602001fd5b6001600160e01b031916630a85bd0160e11b1490506200092e565b5060015b949350505050565b6000908152600260205260409020546001600160a01b0316151590565b3b151590565b828054620009679062000e9d565b90600052602060002090601f0160209004810192826200098b5760008555620009d6565b82601f10620009a657805160ff1916838001178555620009d6565b82800160010185558215620009d6579182015b82811115620009d6578251825591602001919060010190620009b9565b50620009e4929150620009e8565b5090565b5b80821115620009e45760008155600101620009e9565b600082601f83011262000a10578081fd5b8151602062000a2962000a238362000e05565b62000dd9565b82815281810190858301855b8581101562000a625762000a4f898684518b010162000ad0565b8452928401929084019060010162000a35565b5090979650505050505050565b600082601f83011262000a80578081fd5b8151602062000a9362000a238362000e05565b828152818101908583018385028701840188101562000ab0578586fd5b855b8581101562000a625781518452928401929084019060010162000ab2565b600082601f83011262000ae1578081fd5b81516001600160401b0381111562000afd5762000afd62000f0e565b62000b12601f8201601f191660200162000dd9565b81815284602083860101111562000b27578283fd5b6200092e82602083016020870162000e6e565b60006020828403121562000b4c578081fd5b81516001600160e01b03198116811462000b64578182fd5b9392505050565b600080600080600060a0868803121562000b83578081fd5b85516001600160401b038082111562000b9a578283fd5b62000ba889838a0162000ad0565b9650602088015191508082111562000bbe578283fd5b62000bcc89838a0162000ad0565b9550604088015191508082111562000be2578283fd5b62000bf089838a0162000ad0565b9450606088015191508082111562000c06578283fd5b62000c1489838a01620009ff565b9350608088015191508082111562000c2a578283fd5b5062000c398882890162000a6f565b9150509295509295909350565b6000815180845262000c6081602086016020860162000e6e565b601f01601f19169290920160200192915050565b6000825162000c8881846020870162000e6e565b9190910192915050565b6001600160a01b038581168252841660208201526040810183905260806060820181905260009062000cc79083018462000c46565b9695505050505050565b60006020825262000b64602083018462000c46565b60208082526032908201527f4552433732313a207472616e7366657220746f206e6f6e20455243373231526560408201527131b2b4bb32b91034b6b83632b6b2b73a32b960711b606082015260800190565b6020808252601c908201527f4552433732313a20746f6b656e20616c7265616479206d696e74656400000000604082015260600190565b6020808252818101527f4552433732313a206d696e7420746f20746865207a65726f2061646472657373604082015260600190565b6020808252818101527f4f776e61626c653a2063616c6c6572206973206e6f7420746865206f776e6572604082015260600190565b6040518181016001600160401b038111828210171562000dfd5762000dfd62000f0e565b604052919050565b60006001600160401b0382111562000e215762000e2162000f0e565b5060209081020190565b6000821982111562000e415762000e4162000ef8565b500190565b600060ff821660ff84168060ff0382111562000e665762000e6662000ef8565b019392505050565b60005b8381101562000e8b57818101518382015260200162000e71565b838111156200069e5750506000910152565b60028104600182168062000eb257607f821691505b6020821081141562000ed457634e487b7160e01b600052602260045260246000fd5b50919050565b600060001982141562000ef15762000ef162000ef8565b5060010190565b634e487b7160e01b600052601160045260246000fd5b634e487b7160e01b600052604160045260246000fd5b6145048062000f346000396000f3fe6080604052600436106103f95760003560e01c806374151be01161020d578063a49bccca11610128578063cc371bf3116100bb578063e0bb12da1161008a578063edec5f271161006f578063edec5f2714610af3578063f2fde38b14610b13578063f84ddf0b14610b33576103f9565b8063e0bb12da14610ab3578063e985e9c514610ad3576103f9565b8063cc371bf314610a4b578063d395ef0514610a6b578063d7082d6b14610a7e578063df56aba314610a9e576103f9565b8063c39cbef1116100f7578063c39cbef1146109c9578063c6682862146109e9578063c87b56dd146109fe578063c8eb144a14610a1e576103f9565b8063a49bccca14610961578063b2b95f8b14610976578063b88d4fde14610989578063ba4e5c49146109a9576103f9565b8063939ec094116101a05780639ffdb65a1161016f5780639ffdb65a146108f7578063a035b1fe14610917578063a22cb4651461092c578063a313f6bc1461094c576103f9565b8063939ec0941461088d5780639416b423146108a257806395d89b41146108c25780639da495b3146108d7576103f9565b80638797e387116101dc5780638797e387146108395780638ac6552f1461084e5780638da5cb5b146108635780638edb6fca14610878576103f9565b806374151be0146107d15780637fb7731c146107e65780638545f4ea14610806578063868ff4a214610826576103f9565b80633af32abf1161031857806355f804b3116102ab5780636c0360eb1161027a5780636f05e45d1161025f5780636f05e45d1461077c57806370a082311461079c578063715018a6146107bc576103f9565b80636c0360eb146107475780636d5224181461075c576103f9565b806355f804b3146106dd5780635a7adf7f146106fd5780635c975abb146107125780636352211e14610727576103f9565b806344df8e70116102e757806344df8e701461067e57806345ca77381461069357806345ffb25b146106a85780634d426528146106bd576103f9565b80633af32abf146106215780633ccfd60b146106415780633d18b9121461064957806342842e0e1461065e576103f9565b806318cae2691161039057806327a672181161035f57806327a67218146105ac57806328556bbb146105cc57806336033deb146105e157806338712d8d14610601576103f9565b806318cae2691461051c5780631cec396f1461053c5780632032fd3c1461056a57806323b872dd1461058c576103f9565b8063081812fc116103cc578063081812fc1461049a578063095ea7b3146104ba5780630a1a6f59146104da57806315b56d10146104fc576103f9565b806301ffc9a7146103fe57806302329a291461043457806306fdde031461045657806307ad029714610478575b600080fd5b34801561040a57600080fd5b5061041e6104193660046136e7565b610b48565b60405161042b91906139da565b60405180910390f35b34801561044057600080fd5b5061045461044f3660046136b5565b610bc2565b005b34801561046257600080fd5b5061046b610c1d565b60405161042b91906139e5565b34801561048457600080fd5b5061048d610caf565b60405161042b9190613957565b3480156104a657600080fd5b5061048d6104b5366004613774565b610cc5565b3480156104c657600080fd5b506104546104d536600461361d565b610d08565b3480156104e657600080fd5b506104ef610da0565b60405161042b919061431d565b34801561050857600080fd5b5061041e61051736600461371f565b610da6565b34801561052857600080fd5b506104ef6105373660046134f4565b610dda565b34801561054857600080fd5b5061055c610557366004613774565b610dec565b60405161042b929190614326565b34801561057657600080fd5b5061057f610e05565b60405161042b919061430e565b34801561059857600080fd5b506104546105a7366004613540565b610e0f565b3480156105b857600080fd5b506104ef6105c7366004613774565b610edd565b3480156105d857600080fd5b5061041e610eef565b3480156105ed57600080fd5b5061046b6105fc366004613774565b610efe565b34801561060d57600080fd5b506104ef61061c3660046134f4565b610f98565b34801561062d57600080fd5b5061041e61063c3660046134f4565b610faa565b610454611023565b34801561065557600080fd5b506104546110ce565b34801561066a57600080fd5b50610454610679366004613540565b6111d5565b34801561068a57600080fd5b5061048d6111f0565b34801561069f57600080fd5b506104ef6111f6565b3480156106b457600080fd5b506104ef6111fc565b3480156106c957600080fd5b506104546106d836600461378c565b611202565b3480156106e957600080fd5b506104546106f836600461371f565b61127c565b34801561070957600080fd5b5061041e6112ce565b34801561071e57600080fd5b5061041e6112dc565b34801561073357600080fd5b5061048d610742366004613774565b6112e5565b34801561075357600080fd5b5061046b61131a565b34801561076857600080fd5b5061046b610777366004613774565b611327565b34801561078857600080fd5b50610454610797366004613752565b6113c9565b3480156107a857600080fd5b506104ef6107b73660046134f4565b611428565b3480156107c857600080fd5b5061045461146c565b3480156107dd57600080fd5b506104ef6114b7565b3480156107f257600080fd5b506104546108013660046134f4565b6114c3565b34801561081257600080fd5b50610454610821366004613774565b611524565b610454610834366004613774565b611568565b34801561084557600080fd5b5061045461182d565b34801561085a57600080fd5b5061045461187f565b34801561086f57600080fd5b5061048d6118cc565b34801561088457600080fd5b506104ef6118db565b34801561089957600080fd5b506104ef6118e1565b3480156108ae57600080fd5b5061046b6108bd36600461371f565b6118e7565b3480156108ce57600080fd5b5061046b611aac565b3480156108e357600080fd5b506104ef6108f23660046134f4565b611abb565b34801561090357600080fd5b5061041e61091236600461371f565b611acd565b34801561092357600080fd5b506104ef611da6565b34801561093857600080fd5b506104546109473660046135f4565b611dac565b34801561095857600080fd5b5061048d611dbe565b34801561096d57600080fd5b5061057f611dcd565b610454610984366004613774565b611ddd565b34801561099557600080fd5b506104546109a436600461357b565b611fe8565b3480156109b557600080fd5b5061048d6109c4366004613774565b6120b7565b3480156109d557600080fd5b506104546109e436600461378c565b6120e1565b3480156109f557600080fd5b5061046b612151565b348015610a0a57600080fd5b5061046b610a19366004613774565b61215e565b348015610a2a57600080fd5b50610a3e610a39366004613774565b6122bd565b60405161042b9190614334565b348015610a5757600080fd5b50610454610a66366004613774565b6122d2565b610454610a793660046137d1565b612316565b348015610a8a57600080fd5b50610454610a993660046136b5565b6125eb565b348015610aaa57600080fd5b506104ef612644565b348015610abf57600080fd5b506104ef610ace366004613774565b61264a565b348015610adf57600080fd5b5061041e610aee36600461350e565b61265f565b348015610aff57600080fd5b50610454610b0e366004613646565b61268d565b348015610b1f57600080fd5b50610454610b2e3660046134f4565b6126e4565b348015610b3f57600080fd5b506104ef612752565b60006001600160e01b031982167f80ac58cd000000000000000000000000000000000000000000000000000000001480610bab57506001600160e01b031982167f5b5e139f00000000000000000000000000000000000000000000000000000000145b80610bba5750610bba82612776565b90505b919050565b610bca6127a8565b6001600160a01b0316610bdb6118cc565b6001600160a01b031614610c0a5760405162461bcd60e51b8152600401610c0190613f87565b60405180910390fd5b600e805460ff1916911515919091179055565b606060008054610c2c9061440c565b80601f0160208091040260200160405190810160405280929190818152602001828054610c589061440c565b8015610ca55780601f10610c7a57610100808354040283529160200191610ca5565b820191906000526020600020905b815481529060010190602001808311610c8857829003601f168201915b5050505050905090565b600e54630100000090046001600160a01b031681565b6000610cd0826127ac565b610cec5760405162461bcd60e51b8152600401610c0190613f3b565b506000908152600460205260409020546001600160a01b031690565b6000610d13826112e5565b9050806001600160a01b0316836001600160a01b03161415610d475760405162461bcd60e51b8152600401610c019061410a565b806001600160a01b0316610d596127a8565b6001600160a01b03161480610d755750610d7581610aee6127a8565b610d915760405162461bcd60e51b8152600401610c0190613d4a565b610d9b83836127c9565b505050565b60155481565b60006009610db3836118e7565b604051610dc0919061381e565b9081526040519081900360200190205460ff169050919050565b60186020526000908152604090205481565b601b602052600090815260409020805460019091015482565b60105461ffff1681565b60175460405163164746fd60e11b81526001600160a01b0390911690632c8e8dfa90610e439086908690869060040161396b565b600060405180830381600087803b158015610e5d57600080fd5b505af1158015610e71573d6000803e3d6000fd5b50505050611389811015610ed2576001600160a01b0383166000908152601960205260408120805491610ea3836143f5565b90915550506001600160a01b0382166000908152601960205260408120805491610ecc83614447565b91905055505b610d9b838383612837565b601d6020526000908152604090205481565b600e5462010000900460ff1681565b60076020526000908152604090208054610f179061440c565b80601f0160208091040260200160405190810160405280929190818152602001828054610f439061440c565b8015610f905780601f10610f6557610100808354040283529160200191610f90565b820191906000526020600020905b815481529060010190602001808311610f7357829003601f168201915b505050505081565b60196020526000908152604090205481565b6000805b600f5481101561101a57826001600160a01b0316600f8281548110610fe357634e487b7160e01b600052603260045260246000fd5b6000918252602090912001546001600160a01b03161415611008576001915050610bbd565b8061101281614447565b915050610fae565b50600092915050565b61102b6127a8565b6001600160a01b031661103c6118cc565b6001600160a01b0316146110625760405162461bcd60e51b8152600401610c0190613f87565b6000336001600160a01b03164760405161107b90613954565b60006040518083038185875af1925050503d80600081146110b8576040519150601f19603f3d011682016040523d82523d6000602084013e6110bd565b606091505b50509050806110cb57600080fd5b50565b600e5460ff16156110f15760405162461bcd60e51b8152600401610c01906142a0565b60175460405163164746fd60e11b81526001600160a01b0390911690632c8e8dfa90611126903390600090819060040161396b565b600060405180830381600087803b15801561114057600080fd5b505af1158015611154573d6000803e3d6000fd5b50506017546040517fc00007b00000000000000000000000000000000000000000000000000000000081526001600160a01b03909116925063c00007b091506111a1903390600401613957565b600060405180830381600087803b1580156111bb57600080fd5b505af11580156111cf573d6000803e3d6000fd5b50505050565b610d9b83838360405180602001604052806000815250611fe8565b61dead81565b60065481565b60125481565b601754604051632770a7eb60e21b81526001600160a01b0390911690639dc29fac9061123c903390674563918244f40000906004016139c1565b600060405180830381600087803b15801561125657600080fd5b505af115801561126a573d6000803e3d6000fd5b50505050611278828261286f565b5050565b6112846127a8565b6001600160a01b03166112956118cc565b6001600160a01b0316146112bb5760405162461bcd60e51b8152600401610c0190613f87565b805161127890600c90602084019061332d565b600e54610100900460ff1681565b600e5460ff1681565b6000818152600260205260408120546001600160a01b031680610bba5760405162461bcd60e51b8152600401610c0190613e04565b600c8054610f179061440c565b60008181526008602052604090208054606091906113449061440c565b80601f01602080910402602001604051908101604052809291908181526020018280546113709061440c565b80156113bd5780601f10611392576101008083540402835291602001916113bd565b820191906000526020600020905b8154815290600101906020018083116113a057829003601f168201915b50505050509050919050565b6113d16127a8565b6001600160a01b03166113e26118cc565b6001600160a01b0316146114085760405162461bcd60e51b8152600401610c0190613f87565b6010805461ffff909216620100000263ffff000019909216919091179055565b60006001600160a01b0382166114505760405162461bcd60e51b8152600401610c0190613da7565b506001600160a01b031660009081526003602052604090205490565b6114746127a8565b6001600160a01b03166114856118cc565b6001600160a01b0316146114ab5760405162461bcd60e51b8152600401610c0190613f87565b6114b56000612911565b565b674563918244f4000081565b6114cb6127a8565b6001600160a01b03166114dc6118cc565b6001600160a01b0316146115025760405162461bcd60e51b8152600401610c0190613f87565b601780546001600160a01b0319166001600160a01b0392909216919091179055565b61152c6127a8565b6001600160a01b031661153d6118cc565b6001600160a01b0316146115635760405162461bcd60e51b8152600401610c0190613f87565b601155565b600e5460ff161561158b5760405162461bcd60e51b8152600401610c01906142a0565b600e5460ff16156115ae5760405162461bcd60e51b8152600401610c0190613a66565b600e5460ff6101009091041615156001146115db5760405162461bcd60e51b8152600401610c0190613a2f565b6115e433610faa565b6116005760405162461bcd60e51b8152600401610c01906141fb565b3360009081526018602052604090205460105461ffff166116218383614342565b111561163f5760405162461bcd60e51b8152600401610c0190613e61565b60105462010000900461ffff1682111561166b5760405162461bcd60e51b8152600401610c0190614232565b60155460135461167b9084614342565b111561168657600080fd5b6000826011546116969190614393565b9050348111156116b85760405162461bcd60e51b8152600401610c0190614269565b600e54604051600091630100000090046001600160a01b03169083906116dd90613954565b60006040518083038185875af1925050503d806000811461171a576040519150601f19603f3d011682016040523d82523d6000602084013e61171f565b606091505b50509050806117405760405162461bcd60e51b8152600401610c0190613b8e565b8360135461174e9190614342565b60135560005b848110156118265760175460405163cc240c0160e01b81526001600160a01b039091169063cc240c019061178f9033906001906004016139c1565b600060405180830381600087803b1580156117a957600080fd5b505af11580156117bd573d6000803e3d6000fd5b50503360009081526019602052604081208054935091506117dd83614447565b90915550503360009081526018602052604081208054916117fd83614447565b919050555061181461180d6127a8565b6000612963565b8061181e81614447565b915050611754565b5050505050565b6118356127a8565b6001600160a01b03166118466118cc565b6001600160a01b03161461186c5760405162461bcd60e51b8152600401610c0190613f87565b600e805462ff0000191662010000179055565b6118876127a8565b6001600160a01b03166118986118cc565b6001600160a01b0316146118be5760405162461bcd60e51b8152600401610c0190613f87565b600e805462ff000019169055565b600a546001600160a01b031690565b60135481565b60165481565b606060008290506000815167ffffffffffffffff81111561191857634e487b7160e01b600052604160045260246000fd5b6040519080825280601f01601f191660200182016040528015611942576020820181803683370190505b50905060005b8251811015611aa457604183828151811061197357634e487b7160e01b600052603260045260246000fd5b016020015160f81c108015906119b15750605a8382815181106119a657634e487b7160e01b600052603260045260246000fd5b016020015160f81c11155b15611a2f578281815181106119d657634e487b7160e01b600052603260045260246000fd5b602001015160f81c60f81b60f81c60206119f0919061435a565b60f81b828281518110611a1357634e487b7160e01b600052603260045260246000fd5b60200101906001600160f81b031916908160001a905350611a92565b828181518110611a4f57634e487b7160e01b600052603260045260246000fd5b602001015160f81c60f81b828281518110611a7a57634e487b7160e01b600052603260045260246000fd5b60200101906001600160f81b031916908160001a9053505b80611a9c81614447565b915050611948565b509392505050565b606060018054610c2c9061440c565b601a6020526000908152604090205481565b600080829050600181511015611ae7576000915050610bbd565b601981511115611afb576000915050610bbd565b80600081518110611b1c57634e487b7160e01b600052603260045260246000fd5b6020910101516001600160f81b031916600160fd1b1415611b41576000915050610bbd565b8060018251611b5091906143b2565b81518110611b6e57634e487b7160e01b600052603260045260246000fd5b6020910101516001600160f81b031916600160fd1b1415611b93576000915050610bbd565b600081600081518110611bb657634e487b7160e01b600052603260045260246000fd5b01602001516001600160f81b031916905060005b8251811015611d9b576000838281518110611bf557634e487b7160e01b600052603260045260246000fd5b01602001516001600160f81b0319169050600160fd1b81148015611c265750600160fd1b6001600160f81b03198416145b15611c38576000945050505050610bbd565b600360fc1b6001600160f81b0319821610801590611c8057507f39000000000000000000000000000000000000000000000000000000000000006001600160f81b0319821611155b158015611cee57507f41000000000000000000000000000000000000000000000000000000000000006001600160f81b0319821610801590611cec57507f5a000000000000000000000000000000000000000000000000000000000000006001600160f81b0319821611155b155b8015611d5b57507f61000000000000000000000000000000000000000000000000000000000000006001600160f81b0319821610801590611d5957507f7a000000000000000000000000000000000000000000000000000000000000006001600160f81b0319821611155b155b8015611d755750600160fd1b6001600160f81b0319821614155b15611d87576000945050505050610bbd565b915080611d9381614447565b915050611bca565b506001949350505050565b60115481565b611278611db76127a8565b83836129c4565b6017546001600160a01b031681565b60105462010000900461ffff1681565b600e5460ff1615611e005760405162461bcd60e51b8152600401610c01906142a0565b600e54610100900460ff1615611e285760405162461bcd60e51b8152600401610c0190613cdc565b60105462010000900461ffff16811115611e545760405162461bcd60e51b8152600401610c0190614232565b601554601354611e649083614342565b1115611e6f57600080fd5b600081601154611e7f9190614393565b905034811115611ea15760405162461bcd60e51b8152600401610c0190614269565b600e54604051600091630100000090046001600160a01b0316908390611ec690613954565b60006040518083038185875af1925050503d8060008114611f03576040519150601f19603f3d011682016040523d82523d6000602084013e611f08565b606091505b5050905080611f295760405162461bcd60e51b8152600401610c0190613b8e565b82601354611f379190614342565b60135560005b838110156111cf5760175460405163cc240c0160e01b81526001600160a01b039091169063cc240c0190611f789033906001906004016139c1565b600060405180830381600087803b158015611f9257600080fd5b505af1158015611fa6573d6000803e3d6000fd5b5050336000908152601960205260408120805493509150611fc683614447565b9190505550611fd661180d6127a8565b80611fe081614447565b915050611f3d565b60175460405163164746fd60e11b81526001600160a01b0390911690632c8e8dfa9061201c9087908790879060040161396b565b600060405180830381600087803b15801561203657600080fd5b505af115801561204a573d6000803e3d6000fd5b505050506113898210156120ab576001600160a01b038416600090815260196020526040812080549161207c836143f5565b90915550506001600160a01b03831660009081526019602052604081208054916120a583614447565b91905055505b6111cf84848484612a67565b600f81815481106120c757600080fd5b6000918252602090912001546001600160a01b0316905081565b601754600654604051632770a7eb60e21b81526001600160a01b0390921691639dc29fac91612115913391906004016139c1565b600060405180830381600087803b15801561212f57600080fd5b505af1158015612143573d6000803e3d6000fd5b505050506112788282612aa0565b600d8054610f179061440c565b6060612169826127ac565b6121855760405162461bcd60e51b8152600401610c0190614019565b600061219083612d20565b9050600061219c612e43565b604080518082018252600181527f2f000000000000000000000000000000000000000000000000000000000000006020808301919091526000888152601c90915291909120549192509060ff168061222b576040518060400160405280600b81526020017f67656e65736973526f626f000000000000000000000000000000000000000000815250915061226d565b806001141561226d576040518060400160405280600681526020017f726f626f4a72000000000000000000000000000000000000000000000000000081525091505b600083511161228b57604051806020016040528060008152506122b3565b828285600d6040516020016122a394939291906138a9565b6040516020818303038152906040525b9695505050505050565b601c6020526000908152604090205460ff1681565b6122da6127a8565b6001600160a01b03166122eb6118cc565b6001600160a01b0316146123115760405162461bcd60e51b8152600401610c0190613f87565b600655565b600e5460ff16156123395760405162461bcd60e51b8152600401610c01906142a0565b600e5462010000900460ff1615156001146123665760405162461bcd60e51b8152600401610c0190613ecd565b601654601454111561238a5760405162461bcd60e51b8152600401610c01906140d3565b33612394836112e5565b6001600160a01b0316146123ba5760405162461bcd60e51b8152600401610c0190614167565b336123c4826112e5565b6001600160a01b0316146123ea5760405162461bcd60e51b8152600401610c0190614167565b6000828152601c602052604090205460ff16156124195760405162461bcd60e51b8152600401610c0190613d13565b6000818152601c602052604090205460ff16156124485760405162461bcd60e51b8152600401610c0190613d13565b6000828152601d602052604090205442906124669062093a80614342565b106124835760405162461bcd60e51b8152600401610c01906139f8565b6000818152601d602052604090205442906124a19062093a80614342565b106124be5760405162461bcd60e51b8152600401610c01906139f8565b6012546017546040517f70a082310000000000000000000000000000000000000000000000000000000081526001600160a01b03909116906370a082319061250a903390600401613957565b60206040518083038186803b15801561252257600080fd5b505afa158015612536573d6000803e3d6000fd5b505050506040513d601f19601f8201168201806040525081019061255a91906136cf565b101561256557600080fd5b601754601254604051632770a7eb60e21b81526001600160a01b0390921691639dc29fac91612599913391906004016139c1565b600060405180830381600087803b1580156125b357600080fd5b505af11580156125c7573d6000803e3d6000fd5b5050601480549250905060006125dc83614447565b91905055506112788282612e52565b6125f36127a8565b6001600160a01b03166126046118cc565b6001600160a01b03161461262a5760405162461bcd60e51b8152600401610c0190613f87565b600e80549115156101000261ff0019909216919091179055565b60145481565b6000908152601c602052604090205460ff1690565b6001600160a01b03918216600090815260056020908152604080832093909416825291909152205460ff1690565b6126956127a8565b6001600160a01b03166126a66118cc565b6001600160a01b0316146126cc5760405162461bcd60e51b8152600401610c0190613f87565b6126d8600f60006133b1565b610d9b600f83836133cf565b6126ec6127a8565b6001600160a01b03166126fd6118cc565b6001600160a01b0316146127235760405162461bcd60e51b8152600401610c0190613f87565b6001600160a01b0381166127495760405162461bcd60e51b8152600401610c0190613b31565b6110cb81612911565b600061275e600b61276c565b905090565b80546001019055565b5490565b3b151590565b6001600160e01b031981167f01ffc9a70000000000000000000000000000000000000000000000000000000014919050565b3390565b6000908152600260205260409020546001600160a01b0316151590565b600081815260046020526040902080546001600160a01b0319166001600160a01b03841690811790915581906127fe826112e5565b6001600160a01b03167f8c5be1e5ebec7d5bd14f71427d1e84f3dd0314c0f7b2291e5b200ac8c7c3b92560405160405180910390a45050565b6128486128426127a8565b82612ebe565b6128645760405162461bcd60e51b8152600401610c019061419e565b610d9b838383612f3b565b600061287a836112e5565b9050806001600160a01b031661288e6127a8565b6001600160a01b0316146128b45760405162461bcd60e51b8152600401610c0190613a9d565b600083815260076020908152604090912083516128d39285019061332d565b50827fbe3e2fc72ea4bd0d860e908b1ee27aa9856809e62a75bfc0cb7f04b5d791873d8360405161290491906139e5565b60405180910390a2505050565b600a80546001600160a01b038381166001600160a01b0319831681179093556040519116919082907f8be0079c531659141344cd1fd0a4f28419497f9722a3daafe3b4186f6b6457e090600090a35050565b600081600181111561298557634e487b7160e01b600052602160045260246000fd5b9050612991600b612763565b600061299d600b61276c565b6000818152601c60205260409020805460ff191660ff851617905590506111cf8482613068565b816001600160a01b0316836001600160a01b031614156129f65760405162461bcd60e51b8152600401610c0190613c59565b6001600160a01b0383811660008181526005602090815260408083209487168084529490915290819020805460ff1916851515179055517f17307eab39ab6107e8899845ad3d59bd9653f200f220920489ca2b5937696c3190612a5a9085906139da565b60405180910390a3505050565b612a78612a726127a8565b83612ebe565b612a945760405162461bcd60e51b8152600401610c019061419e565b6111cf84848484613082565b6000612aab836112e5565b9050806001600160a01b0316612abf6127a8565b6001600160a01b031614612ae55760405162461bcd60e51b8152600401610c0190613a9d565b612aee82611acd565b1515600114612b0f5760405162461bcd60e51b8152600401610c01906142d7565b600083815260086020526040908190209051600291612b2d9161383a565b602060405180830381855afa158015612b4a573d6000803e3d6000fd5b5050506040513d601f19601f82011682018060405250810190612b6d91906136cf565b600283604051612b7d919061381e565b602060405180830381855afa158015612b9a573d6000803e3d6000fd5b5050506040513d601f19601f82011682018060405250810190612bbd91906136cf565b1415612bdb5760405162461bcd60e51b8152600401610c0190614076565b612be482610da6565b15612c015760405162461bcd60e51b8152600401610c0190613f04565b60008381526008602052604081208054612c1a9061440c565b90501115612cc55760008381526008602052604090208054612cc59190612c409061440c565b80601f0160208091040260200160405190810160405280929190818152602001828054612c6c9061440c565b8015612cb95780601f10612c8e57610100808354040283529160200191612cb9565b820191906000526020600020905b815481529060010190602001808311612c9c57829003601f168201915b505050505060006130b5565b612cd08260016130b5565b60008381526008602090815260409091208351612cef9285019061332d565b50827f7e632a301794d8d4a81ea7e20f37d1947158d36e66403af04ba85dd194b66f1b8360405161290491906139e5565b606081612d4557506040805180820190915260018152600360fc1b6020820152610bbd565b8160005b8115612d6f5780612d5981614447565b9150612d689050600a8361437f565b9150612d49565b60008167ffffffffffffffff811115612d9857634e487b7160e01b600052604160045260246000fd5b6040519080825280601f01601f191660200182016040528015612dc2576020820181803683370190505b5090505b8415612e3b57612dd76001836143b2565b9150612de4600a86614462565b612def906030614342565b60f81b818381518110612e1257634e487b7160e01b600052603260045260246000fd5b60200101906001600160f81b031916908160001a905350612e34600a8661437f565b9450612dc6565b949350505050565b6060600c8054610c2c9061440c565b6000828152601d602090815260408083204290819055848452818420819055858452601b835281842086815560019081018290558585528285208681550155338352601a9091528120805491612ea783614447565b9190505550611278612eb76127a8565b6001612963565b6000612ec9826127ac565b612ee55760405162461bcd60e51b8152600401610c0190613c90565b6000612ef0836112e5565b9050806001600160a01b0316846001600160a01b03161480612f2b5750836001600160a01b0316612f2084610cc5565b6001600160a01b0316145b80612e3b5750612e3b818561265f565b826001600160a01b0316612f4e826112e5565b6001600160a01b031614612f745760405162461bcd60e51b8152600401610c0190613fbc565b6001600160a01b038216612f9a5760405162461bcd60e51b8152600401610c0190613bfc565b612fa5838383610d9b565b612fb06000826127c9565b6001600160a01b0383166000908152600360205260408120805460019290612fd99084906143b2565b90915550506001600160a01b0382166000908152600360205260408120805460019290613007908490614342565b909155505060008181526002602052604080822080546001600160a01b0319166001600160a01b0386811691821790925591518493918716917fddf252ad1be2c89b69c2b068fc378daa952ba7f163c4a11628f55a4df523b3ef91a4505050565b6112788282604051806020016040528060008152506130f2565b61308d848484612f3b565b61309984848484613125565b6111cf5760405162461bcd60e51b8152600401610c0190613ad4565b8060096130c1846118e7565b6040516130ce919061381e565b908152604051908190036020019020805491151560ff199092169190911790555050565b6130fc838361324e565b6131096000848484613125565b610d9b5760405162461bcd60e51b8152600401610c0190613ad4565b6000613139846001600160a01b0316612770565b15611d9b57836001600160a01b031663150b7a026131556127a8565b8786866040518563ffffffff1660e01b8152600401613177949392919061398f565b602060405180830381600087803b15801561319157600080fd5b505af19250505080156131c1575060408051601f3d908101601f191682019092526131be91810190613703565b60015b61321b573d8080156131ef576040519150601f19603f3d011682016040523d82523d6000602084013e6131f4565b606091505b5080516132135760405162461bcd60e51b8152600401610c0190613ad4565b805181602001fd5b6001600160e01b0319167f150b7a0200000000000000000000000000000000000000000000000000000000149050612e3b565b6001600160a01b0382166132745760405162461bcd60e51b8152600401610c0190613e98565b61327d816127ac565b1561329a5760405162461bcd60e51b8152600401610c0190613bc5565b6132a660008383610d9b565b6001600160a01b03821660009081526003602052604081208054600192906132cf908490614342565b909155505060008181526002602052604080822080546001600160a01b0319166001600160a01b03861690811790915590518392907fddf252ad1be2c89b69c2b068fc378daa952ba7f163c4a11628f55a4df523b3ef908290a45050565b8280546133399061440c565b90600052602060002090601f01602090048101928261335b57600085556133a1565b82601f1061337457805160ff19168380011785556133a1565b828001600101855582156133a1579182015b828111156133a1578251825591602001919060010190613386565b506133ad929150613422565b5090565b50805460008255906000526020600020908101906110cb9190613422565b8280548282559060005260206000209081019282156133a1579160200282015b828111156133a15781546001600160a01b0319166001600160a01b038435161782556020909201916001909101906133ef565b5b808211156133ad5760008155600101613423565b600067ffffffffffffffff80841115613452576134526144a2565b604051601f8501601f191681016020018281118282101715613476576134766144a2565b60405284815291508183850186101561348e57600080fd5b8484602083013760006020868301015250509392505050565b80356001600160a01b0381168114610bbd57600080fd5b80358015158114610bbd57600080fd5b600082601f8301126134de578081fd5b6134ed83833560208501613437565b9392505050565b600060208284031215613505578081fd5b6134ed826134a7565b60008060408385031215613520578081fd5b613529836134a7565b9150613537602084016134a7565b90509250929050565b600080600060608486031215613554578081fd5b61355d846134a7565b925061356b602085016134a7565b9150604084013590509250925092565b60008060008060808587031215613590578081fd5b613599856134a7565b93506135a7602086016134a7565b925060408501359150606085013567ffffffffffffffff8111156135c9578182fd5b8501601f810187136135d9578182fd5b6135e887823560208401613437565b91505092959194509250565b60008060408385031215613606578182fd5b61360f836134a7565b9150613537602084016134be565b6000806040838503121561362f578182fd5b613638836134a7565b946020939093013593505050565b60008060208385031215613658578182fd5b823567ffffffffffffffff8082111561366f578384fd5b818501915085601f830112613682578384fd5b813581811115613690578485fd5b86602080830285010111156136a3578485fd5b60209290920196919550909350505050565b6000602082840312156136c6578081fd5b6134ed826134be565b6000602082840312156136e0578081fd5b5051919050565b6000602082840312156136f8578081fd5b81356134ed816144b8565b600060208284031215613714578081fd5b81516134ed816144b8565b600060208284031215613730578081fd5b813567ffffffffffffffff811115613746578182fd5b612e3b848285016134ce565b600060208284031215613763578081fd5b813561ffff811681146134ed578182fd5b600060208284031215613785578081fd5b5035919050565b6000806040838503121561379e578182fd5b82359150602083013567ffffffffffffffff8111156137bb578182fd5b6137c7858286016134ce565b9150509250929050565b600080604083850312156137e3578182fd5b50508035926020909101359150565b6000815180845261380a8160208601602086016143c9565b601f01601f19169290920160200192915050565b600082516138308184602087016143c9565b9190910192915050565b60008083546138488161440c565b6001828116801561386057600181146138715761389d565b60ff1984168752828701945061389d565b8786526020808720875b858110156138945781548a82015290840190820161387b565b50505082870194505b50929695505050505050565b6000855160206138bc8285838b016143c9565b8651918401916138cf8184848b016143c9565b86519201916138e18184848a016143c9565b855492019183906138f18161440c565b60018281168015613909576001811461391a57613943565b60ff19841687528287019450613943565b898852858820885b8481101561393b57815489820152908301908701613922565b505082870194505b50929b9a5050505050505050505050565b90565b6001600160a01b0391909116815260200190565b6001600160a01b039384168152919092166020820152604081019190915260600190565b60006001600160a01b038087168352808616602084015250836040830152608060608301526122b360808301846137f2565b6001600160a01b03929092168252602082015260400190565b901515815260200190565b6000602082526134ed60208301846137f2565b6020808252600b908201527f7761697420372064617973000000000000000000000000000000000000000000604082015260600190565b6020808252600c908201527f70726553616c65206f7665720000000000000000000000000000000000000000604082015260600190565b60208082526006908201527f5061757365640000000000000000000000000000000000000000000000000000604082015260600190565b6020808252601f908201527f4552433732313a2063616c6c6572206973206e6f7420746865206f776e657200604082015260600190565b60208082526032908201527f4552433732313a207472616e7366657220746f206e6f6e20455243373231526560408201527f63656976657220696d706c656d656e7465720000000000000000000000000000606082015260800190565b60208082526026908201527f4f776e61626c653a206e6577206f776e657220697320746865207a65726f206160408201527f6464726573730000000000000000000000000000000000000000000000000000606082015260800190565b6020808252601e908201527f416464726573733a20756e61626c6520746f2073656e642076616c75652e0000604082015260600190565b6020808252601c908201527f4552433732313a20746f6b656e20616c7265616479206d696e74656400000000604082015260600190565b60208082526024908201527f4552433732313a207472616e7366657220746f20746865207a65726f2061646460408201527f7265737300000000000000000000000000000000000000000000000000000000606082015260800190565b60208082526019908201527f4552433732313a20617070726f766520746f2063616c6c657200000000000000604082015260600190565b6020808252602c908201527f4552433732313a206f70657261746f7220717565727920666f72206e6f6e657860408201526b34b9ba32b73a103a37b5b2b760a11b606082015260800190565b6020808252600f908201527f53616c65206e6f74207075626c69630000000000000000000000000000000000604082015260600190565b6020808252601b908201527f43616e206f6e6c792062726565642047656e65736973526f626f730000000000604082015260600190565b60208082526038908201527f4552433732313a20617070726f76652063616c6c6572206973206e6f74206f7760408201527f6e6572206e6f7220617070726f76656420666f7220616c6c0000000000000000606082015260800190565b6020808252602a908201527f4552433732313a2062616c616e636520717565727920666f7220746865207a6560408201527f726f206164647265737300000000000000000000000000000000000000000000606082015260800190565b60208082526029908201527f4552433732313a206f776e657220717565727920666f72206e6f6e657869737460408201527f656e7420746f6b656e0000000000000000000000000000000000000000000000606082015260800190565b6020808252600f908201527f6d61782070657220616464726573730000000000000000000000000000000000604082015260600190565b6020808252818101527f4552433732313a206d696e7420746f20746865207a65726f2061646472657373604082015260600190565b60208082526011908201527f4272656564696e672064697361626c6564000000000000000000000000000000604082015260600190565b60208082526015908201527f4e616d6520616c72656164792072657365727665640000000000000000000000604082015260600190565b6020808252602c908201527f4552433732313a20617070726f76656420717565727920666f72206e6f6e657860408201526b34b9ba32b73a103a37b5b2b760a11b606082015260800190565b6020808252818101527f4f776e61626c653a2063616c6c6572206973206e6f7420746865206f776e6572604082015260600190565b60208082526029908201527f4552433732313a207472616e73666572206f6620746f6b656e2074686174206960408201527f73206e6f74206f776e0000000000000000000000000000000000000000000000606082015260800190565b6020808252602f908201527f4552433732314d657461646174613a2055524920717565727920666f72206e6f60408201527f6e6578697374656e7420746f6b656e0000000000000000000000000000000000606082015260800190565b60208082526023908201527f4e6577206e616d652069732073616d65206173207468652063757272656e742060408201527f6f6e650000000000000000000000000000000000000000000000000000000000606082015260800190565b6020808252600f908201527f737570706c792065786365656465640000000000000000000000000000000000604082015260600190565b60208082526021908201527f4552433732313a20617070726f76616c20746f2063757272656e74206f776e6560408201527f7200000000000000000000000000000000000000000000000000000000000000606082015260800190565b6020808252600b908201527f6e6f74206f776e65724f66000000000000000000000000000000000000000000604082015260600190565b60208082526031908201527f4552433732313a207472616e736665722063616c6c6572206973206e6f74206f60408201527f776e6572206e6f7220617070726f766564000000000000000000000000000000606082015260800190565b6020808252600f908201527f6e6f742077686974656c69737465640000000000000000000000000000000000604082015260600190565b60208082526014908201527f616d6f756e742065786365646564206c696d6974000000000000000000000000604082015260600190565b6020808252600f908201527f696e636f72726563742076616c75650000000000000000000000000000000000604082015260600190565b6020808252600f908201527f436f6e7472616374205061757365640000000000000000000000000000000000604082015260600190565b60208082526014908201527f4e6f7420612076616c6964206e6577206e616d65000000000000000000000000604082015260600190565b61ffff91909116815260200190565b90815260200190565b918252602082015260400190565b60ff91909116815260200190565b6000821982111561435557614355614476565b500190565b600060ff821660ff84168060ff0382111561437757614377614476565b019392505050565b60008261438e5761438e61448c565b500490565b60008160001904831182151516156143ad576143ad614476565b500290565b6000828210156143c4576143c4614476565b500390565b60005b838110156143e45781810151838201526020016143cc565b838111156111cf5750506000910152565b60008161440457614404614476565b506000190190565b60028104600182168061442057607f821691505b6020821081141561444157634e487b7160e01b600052602260045260246000fd5b50919050565b600060001982141561445b5761445b614476565b5060010190565b6000826144715761447161448c565b500690565b634e487b7160e01b600052601160045260246000fd5b634e487b7160e01b600052601260045260246000fd5b634e487b7160e01b600052604160045260246000fd5b6001600160e01b0319811681146110cb57600080fdfea2646970667358221220e56def1515066b971d762955098dfd0d63603ad5c81f8f509d5b4c4e0f719fdf64736f6c63430008000033",
  "linkReferences": {},
  "deployedLinkReferences": {}
}